{
  "_format": "hh-sol-artifact-1",
  "contractName": "BookShelf",
  "sourceName": "contracts/BookShelf.sol",
  "abi": [
    {
      "anonymous": false,
      "inputs": [
        {
          "indexed": false,
          "internalType": "uint256",
          "name": "id",
          "type": "uint256"
        },
        {
          "indexed": false,
          "internalType": "string",
          "name": "name",
          "type": "string"
        },
        {
          "indexed": false,
          "internalType": "uint256",
          "name": "price",
          "type": "uint256"
        },
        {
          "indexed": false,
          "internalType": "address",
          "name": "owner",
          "type": "address"
        },
        {
          "indexed": false,
          "internalType": "bool",
          "name": "forSale",
          "type": "bool"
        }
      ],
      "name": "BookAdded",
      "type": "event"
    },
    {
      "anonymous": false,
      "inputs": [
        {
          "indexed": false,
          "internalType": "uint256",
          "name": "id",
          "type": "uint256"
        },
        {
          "indexed": false,
          "internalType": "address",
          "name": "newOwner",
          "type": "address"
        }
      ],
      "name": "BookBought",
      "type": "event"
    },
    {
      "inputs": [
        {
          "internalType": "string",
          "name": "_name",
          "type": "string"
        },
        {
          "internalType": "uint256",
          "name": "_price",
          "type": "uint256"
        }
      ],
      "name": "addBook",
      "outputs": [],
      "stateMutability": "nonpayable",
      "type": "function"
    },
    {
      "inputs": [],
      "name": "bookCount",
      "outputs": [
        {
          "internalType": "uint256",
          "name": "",
          "type": "uint256"
        }
      ],
      "stateMutability": "view",
      "type": "function"
    },
    {
      "inputs": [
        {
          "internalType": "uint256",
          "name": "",
          "type": "uint256"
        }
      ],
      "name": "books",
      "outputs": [
        {
          "internalType": "uint256",
          "name": "id",
          "type": "uint256"
        },
        {
          "internalType": "string",
          "name": "name",
          "type": "string"
        },
        {
          "internalType": "uint256",
          "name": "price",
          "type": "uint256"
        },
        {
          "internalType": "address payable",
          "name": "owner",
          "type": "address"
        },
        {
          "internalType": "bool",
          "name": "forSale",
          "type": "bool"
        }
      ],
      "stateMutability": "view",
      "type": "function"
    },
    {
      "inputs": [
        {
          "internalType": "uint256",
          "name": "_id",
          "type": "uint256"
        }
      ],
      "name": "buyBook",
      "outputs": [],
      "stateMutability": "payable",
      "type": "function"
    }
  ],
  "bytecode": "0x60806040526000805534801561001457600080fd5b50610f14806100246000396000f3fe60806040526004361061003f5760003560e01c8063637a387214610044578063687440461461006d5780636ee26566146100ae578063b905ad78146100ca575b600080fd5b34801561005057600080fd5b5061006b6004803603810190610066919061087f565b6100f5565b005b34801561007957600080fd5b50610094600480360381019061008f91906108d3565b6102ca565b6040516100a5959493929190610be1565b60405180910390f35b6100c860048036038101906100c391906108d3565b6103b5565b005b3480156100d657600080fd5b506100df610759565b6040516100ec9190610b9d565b60405180910390f35b6000825111610139576040517f08c379a000000000000000000000000000000000000000000000000000000000815260040161013090610b3d565b60405180910390fd5b6000811161017c576040517f08c379a000000000000000000000000000000000000000000000000000000000815260040161017390610b7d565b60405180910390fd5b60008081548092919061018e90610de0565b91905055506040518060a0016040528060005481526020018381526020018281526020013373ffffffffffffffffffffffffffffffffffffffff16815260200160011515815250600160008054815260200190815260200160002060008201518160000155602082015181600101908051906020019061020f92919061075f565b506040820151816002015560608201518160030160006101000a81548173ffffffffffffffffffffffffffffffffffffffff021916908373ffffffffffffffffffffffffffffffffffffffff16021790555060808201518160030160146101000a81548160ff0219169083151502179055509050507fe8e26fd469ffd0cf67eb7590b4648b4bcfd48b975ddc77b731239da23d304d1d60005483833360016040516102be959493929190610c3b565b60405180910390a15050565b60016020528060005260406000206000915090508060000154908060010180546102f390610dae565b80601f016020809104026020016040519081016040528092919081815260200182805461031f90610dae565b801561036c5780601f106103415761010080835404028352916020019161036c565b820191906000526020600020905b81548152906001019060200180831161034f57829003601f168201915b5050505050908060020154908060030160009054906101000a900473ffffffffffffffffffffffffffffffffffffffff16908060030160149054906101000a900460ff16905085565b6000600160008381526020019081526020016000206040518060a0016040529081600082015481526020016001820180546103ef90610dae565b80601f016020809104026020016040519081016040528092919081815260200182805461041b90610dae565b80156104685780601f1061043d57610100808354040283529160200191610468565b820191906000526020600020905b81548152906001019060200180831161044b57829003601f168201915b50505050508152602001600282015481526020016003820160009054906101000a900473ffffffffffffffffffffffffffffffffffffffff1673ffffffffffffffffffffffffffffffffffffffff1673ffffffffffffffffffffffffffffffffffffffff1681526020016003820160149054906101000a900460ff1615151515815250509050600081600001511180156105085750600054816000015111155b610547576040517f08c379a000000000000000000000000000000000000000000000000000000000815260040161053e90610b1d565b60405180910390fd5b806040015134101561058e576040517f08c379a000000000000000000000000000000000000000000000000000000000815260040161058590610b5d565b60405180910390fd5b6001151581608001511515146105d9576040517f08c379a00000000000000000000000000000000000000000000000000000000081526004016105d090610afd565b60405180910390fd5b806060015173ffffffffffffffffffffffffffffffffffffffff166108fc349081150290604051600060405180830381858888f19350505050158015610623573d6000803e3d6000fd5b5033816060019073ffffffffffffffffffffffffffffffffffffffff16908173ffffffffffffffffffffffffffffffffffffffff1681525050600081608001901515908115158152505080600160008481526020019081526020016000206000820151816000015560208201518160010190805190602001906106a792919061075f565b506040820151816002015560608201518160030160006101000a81548173ffffffffffffffffffffffffffffffffffffffff021916908373ffffffffffffffffffffffffffffffffffffffff16021790555060808201518160030160146101000a81548160ff0219169083151502179055509050507fd89fc5e1ede8d30eb06cb6790fe70997eaa7a0cc7e51393e9c67b9d4a83ae563823360405161074d929190610bb8565b60405180910390a15050565b60005481565b82805461076b90610dae565b90600052602060002090601f01602090048101928261078d57600085556107d4565b82601f106107a657805160ff19168380011785556107d4565b828001600101855582156107d4579182015b828111156107d35782518255916020019190600101906107b8565b5b5090506107e191906107e5565b5090565b5b808211156107fe5760008160009055506001016107e6565b5090565b600061081561081084610cc6565b610c95565b90508281526020810184848401111561082d57600080fd5b610838848285610d6c565b509392505050565b600082601f83011261085157600080fd5b8135610861848260208601610802565b91505092915050565b60008135905061087981610ec7565b92915050565b6000806040838503121561089257600080fd5b600083013567ffffffffffffffff8111156108ac57600080fd5b6108b885828601610840565b92505060206108c98582860161086a565b9150509250929050565b6000602082840312156108e557600080fd5b60006108f38482850161086a565b91505092915050565b61090581610d24565b82525050565b61091481610d12565b82525050565b61092381610d36565b82525050565b600061093482610cf6565b61093e8185610d01565b935061094e818560208601610d7b565b61095781610eb6565b840191505092915050565b600061096f601483610d01565b91507f426f6f6b206973206e6f7420666f722073616c650000000000000000000000006000830152602082019050919050565b60006109af601383610d01565b91507f426f6f6b20646f6573206e6f74206578697374000000000000000000000000006000830152602082019050919050565b60006109ef601983610d01565b91507f426f6f6b206e616d652063616e6e6f7420626520656d707479000000000000006000830152602082019050919050565b6000610a2f602383610d01565b91507f496e73756666696369656e742066756e647320746f206275792074686973206260008301527f6f6f6b00000000000000000000000000000000000000000000000000000000006020830152604082019050919050565b6000610a95602483610d01565b91507f426f6f6b207072696365206d7573742062652067726561746572207468616e2060008301527f7a65726f000000000000000000000000000000000000000000000000000000006020830152604082019050919050565b610af781610d62565b82525050565b60006020820190508181036000830152610b1681610962565b9050919050565b60006020820190508181036000830152610b36816109a2565b9050919050565b60006020820190508181036000830152610b56816109e2565b9050919050565b60006020820190508181036000830152610b7681610a22565b9050919050565b60006020820190508181036000830152610b9681610a88565b9050919050565b6000602082019050610bb26000830184610aee565b92915050565b6000604082019050610bcd6000830185610aee565b610bda602083018461090b565b9392505050565b600060a082019050610bf66000830188610aee565b8181036020830152610c088187610929565b9050610c176040830186610aee565b610c2460608301856108fc565b610c31608083018461091a565b9695505050505050565b600060a082019050610c506000830188610aee565b8181036020830152610c628187610929565b9050610c716040830186610aee565b610c7e606083018561090b565b610c8b608083018461091a565b9695505050505050565b6000604051905081810181811067ffffffffffffffff82111715610cbc57610cbb610e87565b5b8060405250919050565b600067ffffffffffffffff821115610ce157610ce0610e87565b5b601f19601f8301169050602081019050919050565b600081519050919050565b600082825260208201905092915050565b6000610d1d82610d42565b9050919050565b6000610d2f82610d42565b9050919050565b60008115159050919050565b600073ffffffffffffffffffffffffffffffffffffffff82169050919050565b6000819050919050565b82818337600083830152505050565b60005b83811015610d99578082015181840152602081019050610d7e565b83811115610da8576000848401525b50505050565b60006002820490506001821680610dc657607f821691505b60208210811415610dda57610dd9610e58565b5b50919050565b6000610deb82610d62565b91507fffffffffffffffffffffffffffffffffffffffffffffffffffffffffffffffff821415610e1e57610e1d610e29565b5b600182019050919050565b7f4e487b7100000000000000000000000000000000000000000000000000000000600052601160045260246000fd5b7f4e487b7100000000000000000000000000000000000000000000000000000000600052602260045260246000fd5b7f4e487b7100000000000000000000000000000000000000000000000000000000600052604160045260246000fd5b6000601f19601f8301169050919050565b610ed081610d62565b8114610edb57600080fd5b5056fea2646970667358221220d5931861b4021f8deeca88a5e540d41613f803c173bf7071c703a6e67f54874f64736f6c63430008000033",
  "linkReferences": {},
  "deployedLinkReferences": {}
}